{
  "contractName": "BasicERC20",
  "abi": [
    {
      "inputs": [
        {
          "internalType": "uint256",
          "name": "_totalSupply",
          "type": "uint256"
        },
        {
          "internalType": "uint256",
          "name": "_decimals",
          "type": "uint256"
        },
        {
          "internalType": "string",
          "name": "_name",
          "type": "string"
        },
        {
          "internalType": "string",
          "name": "_symbol",
          "type": "string"
        }
      ],
      "stateMutability": "nonpayable",
      "type": "constructor"
    },
    {
      "anonymous": false,
      "inputs": [
        {
          "indexed": true,
          "internalType": "address",
          "name": "owner",
          "type": "address"
        },
        {
          "indexed": true,
          "internalType": "address",
          "name": "spender",
          "type": "address"
        },
        {
          "indexed": false,
          "internalType": "uint256",
          "name": "value",
          "type": "uint256"
        }
      ],
      "name": "Approval",
      "type": "event"
    },
    {
      "anonymous": false,
      "inputs": [
        {
          "indexed": true,
          "internalType": "address",
          "name": "from",
          "type": "address"
        },
        {
          "indexed": true,
          "internalType": "address",
          "name": "to",
          "type": "address"
        },
        {
          "indexed": false,
          "internalType": "uint256",
          "name": "value",
          "type": "uint256"
        }
      ],
      "name": "Transfer",
      "type": "event"
    },
    {
      "inputs": [],
      "name": "decimals",
      "outputs": [
        {
          "internalType": "uint256",
          "name": "",
          "type": "uint256"
        }
      ],
      "stateMutability": "view",
      "type": "function"
    },
    {
      "inputs": [],
      "name": "name",
      "outputs": [
        {
          "internalType": "string",
          "name": "",
          "type": "string"
        }
      ],
      "stateMutability": "view",
      "type": "function"
    },
    {
      "inputs": [],
      "name": "symbol",
      "outputs": [
        {
          "internalType": "string",
          "name": "",
          "type": "string"
        }
      ],
      "stateMutability": "view",
      "type": "function"
    },
    {
      "inputs": [],
      "name": "totalSupply_",
      "outputs": [
        {
          "internalType": "uint256",
          "name": "",
          "type": "uint256"
        }
      ],
      "stateMutability": "view",
      "type": "function"
    },
    {
      "inputs": [],
      "name": "totalSupply",
      "outputs": [
        {
          "internalType": "uint256",
          "name": "",
          "type": "uint256"
        }
      ],
      "stateMutability": "view",
      "type": "function"
    },
    {
      "inputs": [
        {
          "internalType": "address",
          "name": "_who",
          "type": "address"
        }
      ],
      "name": "balanceOf",
      "outputs": [
        {
          "internalType": "uint256",
          "name": "",
          "type": "uint256"
        }
      ],
      "stateMutability": "view",
      "type": "function"
    },
    {
      "inputs": [
        {
          "internalType": "address",
          "name": "to",
          "type": "address"
        },
        {
          "internalType": "uint256",
          "name": "value",
          "type": "uint256"
        }
      ],
      "name": "transfer",
      "outputs": [
        {
          "internalType": "bool",
          "name": "",
          "type": "bool"
        }
      ],
      "stateMutability": "nonpayable",
      "type": "function"
    },
    {
      "inputs": [
        {
          "internalType": "address",
          "name": "spender",
          "type": "address"
        },
        {
          "internalType": "uint256",
          "name": "value",
          "type": "uint256"
        }
      ],
      "name": "approve",
      "outputs": [
        {
          "internalType": "bool",
          "name": "",
          "type": "bool"
        }
      ],
      "stateMutability": "nonpayable",
      "type": "function"
    },
    {
      "inputs": [
        {
          "internalType": "address",
          "name": "owner",
          "type": "address"
        },
        {
          "internalType": "address",
          "name": "spender",
          "type": "address"
        }
      ],
      "name": "allowance",
      "outputs": [
        {
          "internalType": "uint256",
          "name": "",
          "type": "uint256"
        }
      ],
      "stateMutability": "view",
      "type": "function"
    },
    {
      "inputs": [
        {
          "internalType": "address",
          "name": "from",
          "type": "address"
        },
        {
          "internalType": "address",
          "name": "to",
          "type": "address"
        },
        {
          "internalType": "uint256",
          "name": "value",
          "type": "uint256"
        }
      ],
      "name": "transferFrom",
      "outputs": [
        {
          "internalType": "bool",
          "name": "",
          "type": "bool"
        }
      ],
      "stateMutability": "nonpayable",
      "type": "function"
    }
  ],
  "bytecode": "0x60806040523480156200001157600080fd5b506040516200165e3803806200165e83398181016040528101906200003791906200034e565b836003819055508260028190555081600490805190602001906200005d929190620000c6565b50806005908051906020019062000076929190620000c6565b506003546000803373ffffffffffffffffffffffffffffffffffffffff1673ffffffffffffffffffffffffffffffffffffffff168152602001908152602001600020819055505050505062000462565b828054620000d4906200042d565b90600052602060002090601f016020900481019282620000f8576000855562000144565b82601f106200011357805160ff191683800117855562000144565b8280016001018555821562000144579182015b828111156200014357825182559160200191906001019062000126565b5b50905062000153919062000157565b5090565b5b808211156200017257600081600090555060010162000158565b5090565b6000604051905090565b600080fd5b600080fd5b6000819050919050565b6200019f816200018a565b8114620001ab57600080fd5b50565b600081519050620001bf8162000194565b92915050565b600080fd5b600080fd5b6000601f19601f8301169050919050565b7f4e487b7100000000000000000000000000000000000000000000000000000000600052604160045260246000fd5b6200021a82620001cf565b810181811067ffffffffffffffff821117156200023c576200023b620001e0565b5b80604052505050565b60006200025162000176565b90506200025f82826200020f565b919050565b600067ffffffffffffffff821115620002825762000281620001e0565b5b6200028d82620001cf565b9050602081019050919050565b60005b83811015620002ba5780820151818401526020810190506200029d565b83811115620002ca576000848401525b50505050565b6000620002e7620002e18462000264565b62000245565b905082815260208101848484011115620003065762000305620001ca565b5b620003138482856200029a565b509392505050565b600082601f830112620003335762000332620001c5565b5b815162000345848260208601620002d0565b91505092915050565b600080600080608085870312156200036b576200036a62000180565b5b60006200037b87828801620001ae565b94505060206200038e87828801620001ae565b935050604085015167ffffffffffffffff811115620003b257620003b162000185565b5b620003c0878288016200031b565b925050606085015167ffffffffffffffff811115620003e457620003e362000185565b5b620003f2878288016200031b565b91505092959194509250565b7f4e487b7100000000000000000000000000000000000000000000000000000000600052602260045260246000fd5b600060028204905060018216806200044657607f821691505b6020821081036200045c576200045b620003fe565b5b50919050565b6111ec80620004726000396000f3fe608060405234801561001057600080fd5b506004361061009e5760003560e01c8063324536eb11610066578063324536eb1461015d57806370a082311461017b57806395d89b41146101ab578063a9059cbb146101c9578063dd62ed3e146101f95761009e565b806306fdde03146100a3578063095ea7b3146100c157806318160ddd146100f157806323b872dd1461010f578063313ce5671461013f575b600080fd5b6100ab610229565b6040516100b89190610cf2565b60405180910390f35b6100db60048036038101906100d69190610dad565b6102b7565b6040516100e89190610e08565b60405180910390f35b6100f961041a565b6040516101069190610e32565b60405180910390f35b61012960048036038101906101249190610e4d565b610424565b6040516101369190610e08565b60405180910390f35b610147610871565b6040516101549190610e32565b60405180910390f35b610165610877565b6040516101729190610e32565b60405180910390f35b61019560048036038101906101909190610ea0565b61087d565b6040516101a29190610e32565b60405180910390f35b6101b36108c5565b6040516101c09190610cf2565b60405180910390f35b6101e360048036038101906101de9190610dad565b610953565b6040516101f09190610e08565b60405180910390f35b610213600480360381019061020e9190610ecd565b610bd2565b6040516102209190610e32565b60405180910390f35b6004805461023690610f3c565b80601f016020809104026020016040519081016040528092919081815260200182805461026290610f3c565b80156102af5780601f10610284576101008083540402835291602001916102af565b820191906000526020600020905b81548152906001019060200180831161029257829003601f168201915b505050505081565b600082600073ffffffffffffffffffffffffffffffffffffffff168173ffffffffffffffffffffffffffffffffffffffff1603610329576040517f08c379a000000000000000000000000000000000000000000000000000000000815260040161032090610fdf565b60405180910390fd5b82600160003373ffffffffffffffffffffffffffffffffffffffff1673ffffffffffffffffffffffffffffffffffffffff16815260200190815260200160002060008673ffffffffffffffffffffffffffffffffffffffff1673ffffffffffffffffffffffffffffffffffffffff168152602001908152602001600020819055508373ffffffffffffffffffffffffffffffffffffffff163373ffffffffffffffffffffffffffffffffffffffff167f8c5be1e5ebec7d5bd14f71427d1e84f3dd0314c0f7b2291e5b200ac8c7c3b925856040516104079190610e32565b60405180910390a3600191505092915050565b6000600354905090565b600083826000808373ffffffffffffffffffffffffffffffffffffffff1673ffffffffffffffffffffffffffffffffffffffff168152602001908152602001600020548111156104a9576040517f08c379a00000000000000000000000000000000000000000000000000000000081526004016104a09061104b565b60405180910390fd5b853385600160008473ffffffffffffffffffffffffffffffffffffffff1673ffffffffffffffffffffffffffffffffffffffff16815260200190815260200160002060008373ffffffffffffffffffffffffffffffffffffffff1673ffffffffffffffffffffffffffffffffffffffff1681526020019081526020016000205481111561056b576040517f08c379a0000000000000000000000000000000000000000000000000000000008152600401610562906110dd565b60405180910390fd5b87600073ffffffffffffffffffffffffffffffffffffffff168173ffffffffffffffffffffffffffffffffffffffff16036105db576040517f08c379a00000000000000000000000000000000000000000000000000000000081526004016105d290610fdf565b60405180910390fd5b87600160008c73ffffffffffffffffffffffffffffffffffffffff1673ffffffffffffffffffffffffffffffffffffffff16815260200190815260200160002060003373ffffffffffffffffffffffffffffffffffffffff1673ffffffffffffffffffffffffffffffffffffffff16815260200190815260200160002054610663919061112c565b600160008c73ffffffffffffffffffffffffffffffffffffffff1673ffffffffffffffffffffffffffffffffffffffff16815260200190815260200160002060003373ffffffffffffffffffffffffffffffffffffffff1673ffffffffffffffffffffffffffffffffffffffff16815260200190815260200160002081905550876000808c73ffffffffffffffffffffffffffffffffffffffff1673ffffffffffffffffffffffffffffffffffffffff1681526020019081526020016000205461072d919061112c565b6000808c73ffffffffffffffffffffffffffffffffffffffff1673ffffffffffffffffffffffffffffffffffffffff16815260200190815260200160002081905550876000808b73ffffffffffffffffffffffffffffffffffffffff1673ffffffffffffffffffffffffffffffffffffffff168152602001908152602001600020546107b99190611160565b6000808b73ffffffffffffffffffffffffffffffffffffffff1673ffffffffffffffffffffffffffffffffffffffff168152602001908152602001600020819055508873ffffffffffffffffffffffffffffffffffffffff168a73ffffffffffffffffffffffffffffffffffffffff167fddf252ad1be2c89b69c2b068fc378daa952ba7f163c4a11628f55a4df523b3ef8a6040516108589190610e32565b60405180910390a3600196505050505050509392505050565b60025481565b60035481565b60008060008373ffffffffffffffffffffffffffffffffffffffff1673ffffffffffffffffffffffffffffffffffffffff168152602001908152602001600020549050919050565b600580546108d290610f3c565b80601f01602080910402602001604051908101604052809291908181526020018280546108fe90610f3c565b801561094b5780601f106109205761010080835404028352916020019161094b565b820191906000526020600020905b81548152906001019060200180831161092e57829003601f168201915b505050505081565b600033826000808373ffffffffffffffffffffffffffffffffffffffff1673ffffffffffffffffffffffffffffffffffffffff168152602001908152602001600020548111156109d8576040517f08c379a00000000000000000000000000000000000000000000000000000000081526004016109cf9061104b565b60405180910390fd5b84600073ffffffffffffffffffffffffffffffffffffffff168173ffffffffffffffffffffffffffffffffffffffff1603610a48576040517f08c379a0000000000000000000000000000000000000000000000000000000008152600401610a3f90610fdf565b60405180910390fd5b846000803373ffffffffffffffffffffffffffffffffffffffff1673ffffffffffffffffffffffffffffffffffffffff16815260200190815260200160002054610a92919061112c565b6000803373ffffffffffffffffffffffffffffffffffffffff1673ffffffffffffffffffffffffffffffffffffffff16815260200190815260200160002081905550846000808873ffffffffffffffffffffffffffffffffffffffff1673ffffffffffffffffffffffffffffffffffffffff16815260200190815260200160002054610b1e9190611160565b6000808873ffffffffffffffffffffffffffffffffffffffff1673ffffffffffffffffffffffffffffffffffffffff168152602001908152602001600020819055508573ffffffffffffffffffffffffffffffffffffffff163373ffffffffffffffffffffffffffffffffffffffff167fddf252ad1be2c89b69c2b068fc378daa952ba7f163c4a11628f55a4df523b3ef87604051610bbd9190610e32565b60405180910390a36001935050505092915050565b6000600160008473ffffffffffffffffffffffffffffffffffffffff1673ffffffffffffffffffffffffffffffffffffffff16815260200190815260200160002060008373ffffffffffffffffffffffffffffffffffffffff1673ffffffffffffffffffffffffffffffffffffffff16815260200190815260200160002054905092915050565b600081519050919050565b600082825260208201905092915050565b60005b83811015610c93578082015181840152602081019050610c78565b83811115610ca2576000848401525b50505050565b6000601f19601f8301169050919050565b6000610cc482610c59565b610cce8185610c64565b9350610cde818560208601610c75565b610ce781610ca8565b840191505092915050565b60006020820190508181036000830152610d0c8184610cb9565b905092915050565b600080fd5b600073ffffffffffffffffffffffffffffffffffffffff82169050919050565b6000610d4482610d19565b9050919050565b610d5481610d39565b8114610d5f57600080fd5b50565b600081359050610d7181610d4b565b92915050565b6000819050919050565b610d8a81610d77565b8114610d9557600080fd5b50565b600081359050610da781610d81565b92915050565b60008060408385031215610dc457610dc3610d14565b5b6000610dd285828601610d62565b9250506020610de385828601610d98565b9150509250929050565b60008115159050919050565b610e0281610ded565b82525050565b6000602082019050610e1d6000830184610df9565b92915050565b610e2c81610d77565b82525050565b6000602082019050610e476000830184610e23565b92915050565b600080600060608486031215610e6657610e65610d14565b5b6000610e7486828701610d62565b9350506020610e8586828701610d62565b9250506040610e9686828701610d98565b9150509250925092565b600060208284031215610eb657610eb5610d14565b5b6000610ec484828501610d62565b91505092915050565b60008060408385031215610ee457610ee3610d14565b5b6000610ef285828601610d62565b9250506020610f0385828601610d62565b9150509250929050565b7f4e487b7100000000000000000000000000000000000000000000000000000000600052602260045260246000fd5b60006002820490506001821680610f5457607f821691505b602082108103610f6757610f66610f0d565b5b50919050565b7f4164647265737320697320696e76616c69642c20506c656173652c206368656360008201527f6b20796f7572206164647265737320616e642074727920616761696e00000000602082015250565b6000610fc9603c83610c64565b9150610fd482610f6d565b604082019050919050565b60006020820190508181036000830152610ff881610fbc565b9050919050565b7f596f75206861766520696e73756666696369656e7420746f6b656e7300000000600082015250565b6000611035601c83610c64565b915061104082610fff565b602082019050919050565b6000602082019050818103600083015261106481611028565b9050919050565b7f596f75206861766520696e73756666696369656e7420616c6c6f77616e63652060008201527f66726f6d206f776e657200000000000000000000000000000000000000000000602082015250565b60006110c7602a83610c64565b91506110d28261106b565b604082019050919050565b600060208201905081810360008301526110f6816110ba565b9050919050565b7f4e487b7100000000000000000000000000000000000000000000000000000000600052601160045260246000fd5b600061113782610d77565b915061114283610d77565b925082821015611155576111546110fd565b5b828203905092915050565b600061116b82610d77565b915061117683610d77565b9250827fffffffffffffffffffffffffffffffffffffffffffffffffffffffffffffffff038211156111ab576111aa6110fd565b5b82820190509291505056fea2646970667358221220bbfd52133c59a338c0ba4e93ee506b5c7185df6960787d5a917879d4fbd9298164736f6c634300080d0033",
  "immutableReferences": {},
  "source": "// SPDX-License-Identifier: MIT\npragma solidity >=0.4.22 <0.9.0;\n\ncontract BasicERC20 {\n\n  event Transfer (address indexed from, address indexed to, uint256 value);\n  event Approval (address indexed owner, address indexed spender, uint256 value);\n\n  mapping(address => uint) balances;\n  mapping(address => mapping(address => uint)) allowed;\n\n  uint public decimals;\n  uint public totalSupply_;\n\n  string public name; //CIU Christian Fellowship\n  string public symbol; //CIUCF\n\n  modifier sufficientBalance(address _spender, uint _value){\n    require(_value <= balances[_spender], \"You have insufficient tokens\");\n    _;\n  }\n\n  modifier sufficientApproval(address _owner, address _spender, uint _value){\n    require(_value <= allowed[_owner][_spender], \"You have insufficient allowance from owner\");\n    _;\n  }\n\n  modifier validAddress(address _address) {\n    require(_address != address(0), \"Address is invalid, Please, check your address and try again\");\n    _;\n  }\n\n\n  constructor(uint _totalSupply, uint _decimals, string memory _name, string memory _symbol) {\n    totalSupply_ = _totalSupply;\n    decimals = _decimals;\n    name = _name;\n    symbol = _symbol;\n\n    balances[msg.sender] = totalSupply_;\n  }\n\n  function totalSupply() public view virtual returns(uint256){\n    return totalSupply_;\n  }\n\n  function balanceOf(address _who) public view virtual returns(uint256){\n    return balances[_who];\n  }\n\n   function transfer(address to, uint256 value) public virtual sufficientBalance(msg.sender, value) validAddress(to) returns(bool){\n    balances[msg.sender] = balances[msg.sender] - value;\n    balances[to] = balances[to] + value;\n    emit Transfer(msg.sender, to, value);\n\n    return true;\n  }\n\n  function approve(address spender, uint256 value) public virtual validAddress(spender) returns(bool){\n    allowed[msg.sender][spender] = value;\n    emit Approval(msg.sender, spender, value);\n\n    return true;\n  }\n\n  function allowance(address owner, address spender) public virtual view returns(uint256){\n    return allowed[owner][spender];\n  }\n\n  function transferFrom(address from, address to, uint256 value) public virtual sufficientBalance(from, value) sufficientApproval(from, msg.sender, value) validAddress(to) returns(bool){\n    allowed[from][msg.sender] = allowed[from][msg.sender] - value; //Reduces the sender's allowance\n    balances[from] = balances[from] - value; //Reduces the allocators balance\n    balances[to] = balances[to] + value; //Increases the receiver's balance\n    emit Transfer(from, to, value);\n\n    return true;\n  }\n}\n",
  "sourcePath": "C:\\Users\\user\\Desktop\\CIUCF-ERC20-token\\contracts\\BasicERC20.sol",
  "compiler": {
    "name": "solc",
    "version": "0.8.13+commit.abaa5c0e.Emscripten.clang"
  },
  "schemaVersion": "3.4.6",
  "updatedAt": "2022-04-04T13:40:58.667Z",
  "devdoc": {
    "kind": "dev",
    "methods": {},
    "version": 1
  },
  "userdoc": {
    "kind": "user",
    "methods": {},
    "version": 1
  }
}